:100000000C942A000C944F000C9434000C9434008F
:100010000C9434000C9434000C9434000C94340090
:100020000C9434000C9434000C9434000C94340080
:100030000C9434000C9434000C9434000C94340070
:100040000C9434000C9434000C9434000C94340060
:100050000C94340011241FBECFE5D4E0DEBFCDBF29
:100060000E9436000C949D000C9400001ABA81E0A6
:1000700087BB11BA12BA80E48BBF92E095BF97E8B4
:1000800096B987B97894FFCF009741F0EFECF7E08D
:100090003197F1F700C000000197C1F708951F9252
:1000A0000F920FB60F9211242F933F934F935F93AC
:1000B0006F937F938F939F93AF93BF93CF93DF9370
:1000C000EF93FF93369A349BFECF24B135B136952A
:1000D000279536952795ABE7B4E10E949100EC0196
:1000E000D695C795CE010E94440081E088BB8AE086
:1000F00090E08C1B9D0B0E94440018BAFF91EF9179
:10010000DF91CF91BF91AF919F918F917F916F912F
:100110005F914F913F912F910F900FBE0F901F90C5
:100120001895A29FB001B39FC001A39F01D0B29FB9
:0E013000700D811D1124911D0895F894FFCFCC
:00000001FF
